:0500ED001200F2D2A197
:0100F20022EB
:0A00CF00D2A01200EDC2A00200F260
:0A00D900C2A01200EDD2A00200F256
:080028001200CF7FA012006757
:10003000D2A11200F230A00BE509C394FA500405D6
:080040000980F2C2A10200F2E6
:0A00E300D2A01200F2D2A10200F236
:10006700E4FEEF25E0FFC2A11200F292A01200ED1C
:0E0077000EBE08EEC2A11200F2D2A00200F2EC
:10000300C2A11200F2D2A01200F2E4FED2A11200A9
:10001300F2EF25E0FDA2A0E4334DFFC2A11200F2EE
:040023000EBE08E81D
:0100270022B6
:0D00B500EFD3940040077E64DEFE1F80F351
:0100C200221B
:10008500AC07120028AF04120067120030AF05124A
:0800950000671200300200D9DF
:02004800AD0702
:10004A00120028AF051200671200301200CF7FA1FC
:0C005A001200671200301200031200D9DF
:010066002277
:10009D001200E37DAA7F171200857F641200B57FE1
:0800AD00171200488F9080FE3D
:030000000200C338
:0C00C300787FE4F6D8FD75810902009DED
:00000001FF
