:10054000010E00010F00011200011300011400014F
:0E0550000D01011500011600010A000108004E
:10057D0012052112000E1203881204DF12029012CE
:04058D0005F580FBF5
:03000B0002020CE2
:10020C00C0E0C0F0C083C082C0D075D000C000C0B8
:10021C0001C002C003C004C005C006C007E50D60E4
:10022C0008758C3C758AB0050EE515603C758CD84C
:10023C00758AF00512E50A75F00A84FFE50A75F077
:10024C000A84ADF0E50875F00A84FBE50875F00A40
:10025C008485F01A120311E512B4640575120015A9
:10026C000AE50A7004F512F515D007D006D005D0B2
:10027C0004D003D002D001D000D0D0D082D083D013
:04028C00F0D0E0329C
:03001B000203EBF2
:1003EB00C0E0C0D075D000C000C007758D3C758BC8
:1003FB00B0E51660280514E514B4282175140075B2
:10040B000B00750C007590FFAF097801EF088001A8
:10041B0023D8FDF5090511E51170020510D007D0A1
:06042B0000D0D0D0E03249
:10052100D2AFD2A9D28C758C3C758AB0D2ABD28EA7
:0F053100758911758D3C758BB01205B5D2A3225B
:10055F00C2A3E50EB414FBE4F50E050F1205C6B2E7
:0E056F00A3E50FB405ECC2A9D2A3E4F50D225A
:0C000E0012000312001EBF10FA020007CF
:100388007509FE751000751101750A1EE4F50875EA
:100398001501F510751101E50A6047E51164094575
:1003A800107005F51075110185099012001EEF6592
:1003B800117002E5106004E50A70F0E50A6023B2E6
:1003C800A305087590FF120591AF097801EF088021
:1003D8000123D8FDF509B2A30511E51170B905107F
:0303E80080B522BB
:1004DF0012000312001EEF64106014E50875F00A95
:1004EF0084FFE50875F00A84ADF012046C80E40215
:0204FF000007F4
:100290007509FE751000751101750B00750C01755F
:1002A0000A1EE4F508751501751601E50A60617509
:1002B0000B00750C01E511640945107005F510750A
:1002C000110185099012001EEF7006E50C450B70B8
:1002D000F4EF601365117002E510600BE508D3942C
:1002E0000040C8150880C4E50C450B60BEB2A305EC
:1002F000087590FF120591AF097801EF088001237E
:10030000D8FDF5090511E51170020510B2A3809B17
:0103100022CA
:0305F5000204DF1E
:1005B500C290C291C292C293C294C295C296C2978A
:0105C5002213
:1005C600B290B291B292B293B294B295B296B297F9
:0105D6002202
:04000300E4F590226E
:040007007590FF22CF
:1004A700751DFE751E00751F08851D901205917537
:1004B70090FF120591AF1D7801EF08800123D8FD49
:1004C700F51DE51F151F7002151ED3E51F9400E5E6
:0704D7001E6480948050D2E6
:0104DE0022FB
:10050100D3EF9400EE6480948040147D6E7C00ED06
:0F0511001D70011CED4C70F7EF1F70E41E80E1B0
:0105200022B8
:0D05E7007F6E7E00EF1F70011EEF4E70F75B
:0105F40022E4
:10059100E4FDFC1205E70DBD00010CED64644C7037
:0105A100F267
:0105A2002236
:1005A300E4FBFA1205910BBB00010AEB640A4A70E3
:0105B300F255
:0105B4002224
:10001E00E4F51B75B0FE85B01C531CF0E51C64F0B6
:10002E0060487F017E0012050185B01C531CF0E56F
:10003E001C64F060E785B01CE51C2482601B24C0A4
:10004E00601224E0600924F07012751B01800D759A
:10005E001B028008751B038003751B04E51C64F0EE
:10006E0060CD85B01C531CF080F275B0FD85B01CC0
:10007E00531CF0E51C64F060487F017E0012050100
:10008E0085B01C531CF0E51C64F060E785B01CE5E0
:10009E001C2483601B24C0601224E0600924F070CD
:1000AE0012751B05800D751B068008751B078003D6
:1000BE00751B08E51C64F060CD85B01C531CF080E8
:1000CE00F275B0FB85B01C531CF0E51C64F0604863
:1000DE007F017E0012050185B01C531CF0E51C64E7
:1000EE00F060E785B01CE51C2485601B24C06012FF
:1000FE0024E0600924F07012751B09800D751B0A2F
:10010E008008751B0B8003751B0CE51C64F060CD1D
:10011E0085B01C531CF080F275B0F785B01C531CD3
:10012E00F0E51C64F060487F017E0012050185B089
:10013E001C531CF0E51C64F060E785B01CE51C2424
:10014E0089601B24C0601224E0600924F0701275CF
:10015E001B0D800D751B0E8008751B0F8003751B04
:10016E0010E51C64F060CD85B01C531CF080F2AF1E
:01017E001B65
:01017F00225D
:1005D7003F065B4F666D7D077F6F777C395E79716C
:100431008D20D2A6EF9005D793F580C2A67580FFD7
:10044100D2A77580FEC2A77F017E00120501D2A648
:10045100E5209005D793F580C2A67580FFD2A775D8
:0B04610080FDC2A77F017E00020501A4
:10046C008D1BD2A6EF9005D793F580C2A67580FFA1
:10047C00D2A77580EFC2A77F017E00120501D2A61C
:10048C00E51B9005D793F580C2A67580FFD2A775A2
:0B049C0080DFC2A77F017E0002050187
:100311008D188B19D2A6EF9005D793F580C2A675DB
:1003210080FFD2A77580FEC2A77F017E0012050162
:10033100D2A6E5189005D793F580C2A67580FFD2A5
:10034100A77580FDC2A77F017E00120501D2A6E537
:10035100199005D793F580C2A67580FFD2A7758045
:10036100EFC2A77F017E00120501D2A6E51A900512
:10037100D793F580C2A67580FFD2A77580DFC2A78B
:070381007F017E000205016F
:030000000201807A
:0C018000787FE4F6D8FD7581200201C7ED
:10018C0002057DE493A3F8E493A34003F68001F207
:10019C0008DFF48029E493A3F85407240CC8C33374
:1001AC00C4540F4420C8834004F456800146F6DF43
:1001BC00E4800B0102040810204080900540E47E8E
:1001CC00019360BCA3FF543F30E509541FFEE49338
:1001DC00A360010ECF54C025E060A840B8E493A3FF
:1001EC00FAE493A3F8E493A3C8C582C8CAC583CA2A
:1001FC00F0A3C8C582C8CAC583CADFE9DEE780BEE2
:01055E00009C
:00000001FF
