:030000000200DC1F
:0C00DC00787FE4F6D8FD75810C0200521C
:1000CC003F065B4F666D7D077F6F777C395E79717C
:100052001200B5E50AB4142CE4F50A0509E509B461
:100062006403E4F509E50975F06484F508E50975AA
:10007200F06484E5F075F00A84F50BE50975F00A81
:0F0082008485F00CAB0CAD0BAF0812000E80C4E0
:06009100C2A77F017E0002
:10009700D3EF9400EE940040147D6E7C00ED1D704C
:0D00A700011CED4C70F7EF1F70E61E80E3AA
:0100B4002229
:10000E00AA05D2A6EF9000CC93F580C2A67580FF0C
:10001E00D2A77580FE120091D2A6EA93F580C2A6F1
:10002E007580FFD2A77580FD120091D2A6EB93F5D5
:10003E0080C2A67580FFD2A77580FBC2A77F017E06
:04004E000002009715
:1000B500C2A7C2A6E4F509758901758C3C758AB09D
:0700C500D2AFD2A9D28C22B8
:03000B000200E808
:0900E800758C3C758AB0050A32E2
:00000001FF
