:0F032B003F065B4F666D7D077F6F767938383FF1
:08000E00021201B0021400FE11
:1002FB00C2A77580FFD2A6A3E493F580C2A67F01A7
:02030B007E0072
:10030D00D3EF9400EE940040147D6E7C00ED1D70D3
:0D031D00011CED4C70F7EF1F70E61E80E331
:01032A0022B0
:10028000D2A77580FEC2A77580FFD2A69003351253
:100290000303D2A77580FD1202FBD2A77580FB1263
:1002A00002FBD2A77580F71202FBD2A77580EFC2BE
:1002B000A77580FFD2A6A3E493F580C2A67F017E36
:0402C0000002030D28
:10014C008E1C8F1D8C1E8D1FD2A77580FEC2A775AD
:10015C0080FFD2A6900332120303D2A77580FDC292
:10016C00A77580FFD2A6900331120303D2A7758026
:10017C00FBC2A77580FFD2A6900330120303D2A74F
:10018C007580F7C2A77580FFD2A6EB90032B1203E4
:10019C0004D2A77580EFC2A77580FFD2A6E51F1207
:1001AC000304D2A77580DFC2A77580FFD2A6E51D18
:0C01BC0093F580C2A67F017E0002030DB7
:1002C400D2AFD2A9D2AB758911D28C758C3C758A08
:1002D400B0D28E758D3C758BB0E50D6401450C6014
:1002E40011AB1BAA1AAD19AC18AF17AE1612014CFC
:0702F40080E712028080E2A6
:03001B0002001EC2
:10001E00C0E0C0F0C0D075D000C000C004C005C0A4
:10002E0006C007758D3C758BB0050BE50B70020590
:10003E000A6402450A706AF50AF50BAE12AF13FC9C
:10004E007D0A12022B8C168D17AE12AF137C007D1B
:10005E006412022B7E007F0ACFCDCFCECCCE120201
:10006E002B8E188F19AE12AF137C007D6412022BEB
:10007E008E1A8F1BE513B48E20E512B4011BC28CB1
:10008E00758C3C758AB0D28C750800750901751097
:10009E00007511007590FFC28EE5131513700215D1
:1000AE0012D007D006D005D004D000D0D0D0F0D0DA
:0200BE00E0322E
:03000B000201C827
:1001C800C0E0C0D075D000C000C007758C3C758AEF
:1001D800B00511E51170020510E50945087020E524
:1001E80011640A45107033F510F511AF158F90782A
:1001F80001EF08800123D8FD751400F515801BE573
:1002080011540370036390FFE511643C4510700AB4
:10021800C28C7590FFF50C750D01D007D000D0D0B9
:03022800D0E032F1
:030000000200C03B
:0C00C000787FE4F6D8FD75811F0201076F
:10022B00BC000BBE0029EF8DF084FFADF022E4CCB7
:10023B00F875F008EF2FFFEE33FEEC33FCEE9DEC80
:10024B00984005FCEE9DFE0FD5F0E9E4CEFD22EDC6
:10025B00F8F5F0EE8420D21CFEADF075F008EF2F10
:10026B00FFED33FD4007985006D5F0F222C398FD01
:05027B000FD5F0EA229E
:1000CC000202C4E493A3F8E493A34003F68001F284
:1000DC0008DFF48029E493A3F85407240CC8C33335
:1000EC00C4540F4420C8834004F456800146F6DF04
:1000FC00E4800B010204081020408090000EE47E86
:10010C00019360BCA3FF543F30E509541FFEE493F8
:10011C00A360010ECF54C025E060A840B8E493A3BF
:10012C00FAE493A3F8E493A3C8C582C8CAC583CAEA
:10013C00F0A3C8C582C8CAC583CADFE9DEE780BEA2
:0100160000E9
:00000001FF
