:10019600BF86DBCFE6EDFD87FFEF3F065B4F666D63
:0401A6007D077F6FE3
:04000300020C0000EB
:10009A00D2AFD2A9758901D28C758CD8758AF0AE87
:1000AA000CAF0D7C007D6412011C8E088F09AE0C0A
:1000BA00AF0D7C007D6412011CAA04AB057D647C33
:1000CA0000AF03AE0212011C8E0A8F0B7D0A7C0060
:1000DA00AF03AE0212011CAF05AE04D2A77580FBB6
:1000EA00C2A7D2A6ED9001A09324FF92A6D2A7752B
:1000FA0080FDC2A7D2A6E50B9324FF92A6D2A775CC
:10010A0080FEC2A7D2A6E5099001969324FF92A683
:02011A00808DD6
:03000B000201717E
:10017100C0E0C0D0758CD8758AF0050DE50D700210
:10018100050CB4E80BE50CB40306750C00750D0005
:05019100D0D0D0E032E7
:0300000002000EED
:0C000E00787FE4F6D8FD75810D020055E6
:10011C00BC000BBE0029EF8DF084FFADF022E4CCC7
:10012C00F875F008EF2FFFEE33FEEC33FCEE9DEC90
:10013C00984005FCEE9DFE0FD5F0E9E4CEFD22EDD6
:10014C00F8F5F0EE8420D21CFEADF075F008EF2F20
:10015C00FFED33FD4007985006D5F0F222C398FD11
:05016C000FD5F0EA22AE
:10001A0002009AE493A3F8E493A34003F68001F262
:10002A0008DFF48029E493A3F85407240CC8C333E7
:10003A00C4540F4420C8834004F456800146F6DFB6
:10004A00E4800B0102040810204080900003E47E43
:10005A00019360BCA3FF543F30E509541FFEE493AB
:10006A00A360010ECF54C025E060A840B8E493A372
:10007A00FAE493A3F8E493A3C8C582C8CAC583CA9D
:10008A00F0A3C8C582C8CAC583CADFE9DEE780BE55
:0100070000F8
:00000001FF
