:10000300BF86DBCFE6EDFD87FFEF3F065B4F666DF7
:040013007D077F6F77
:0401F20002080000FF
:0901BA0093F580C2A67F017E00CE
:1001C300D3EF9400EE940040147D6E7C00ED1D701F
:0D01D300011CED4C70F7EF1F70E61E80E37D
:0101E00022FC
:1001E100D2AFD2AB758910D28E758DD8758BF08058
:0101F100FE0F
:03001B0002001EC2
:10001E00C0E0C0F0C083C082C0D075D000C000C0A8
:10002E0004C005C006C007758DD8758BF00509E5AF
:10003E000970020508B4E80BE508B403067508005C
:10004E00750900AE08AF097C007D641201658E0A49
:10005E008F0BAE08AF097C007D641201657E007FB8
:10006E000ACFCDCFCECCCE1201658E0C8F0DAE0841
:10007E00AF097C007D0A1201658C108D11D2A77517
:10008E0080F8C2A77580FFD2A6E51190000D12016F
:10009E00BAD2A77580FDC2A77580FFD2A6E50D1254
:1000AE0001BAD2A77580FEC2A77580FFD2A6E50B56
:1000BE009000031201BAD007D006D005D004D000AC
:0B00CE00D0D0D082D083D0F0D0E03240
:030000000200D922
:0C00D900787FE4F6D8FD7581110201204B
:10016500BC000BBE0029EF8DF084FFADF022E4CC7E
:10017500F875F008EF2FFFEE33FEEC33FCEE9DEC47
:10018500984005FCEE9DFE0FD5F0E9E4CEFD22ED8D
:10019500F8F5F0EE8420D21CFEADF075F008EF2FD7
:1001A500FFED33FD4007985006D5F0F222C398FDC8
:0501B5000FD5F0EA2265
:1000E5000201E1E493A3F8E493A34003F68001F24F
:1000F50008DFF48029E493A3F85407240CC8C3331C
:10010500C4540F4420C8834004F456800146F6DFEA
:10011500E4800B01020408102040809001F2E47E87
:10012500019360BCA3FF543F30E509541FFEE493DF
:10013500A360010ECF54C025E060A840B8E493A3A6
:10014500FAE493A3F8E493A3C8C582C8CAC583CAD1
:10015500F0A3C8C582C8CAC583CADFE9DEE780BE89
:0101F6000008
:00000001FF
