:10032300039F250D9949411F01191946154344405F
:040333000D0E000F9C
:0503A100C1000108018C
:10015F00E4F513F5141203A77F081202DD20B20F86
:10016F007F0A7E0012030720B205050830B2FDE5B5
:10017F0008D394034003750801E50824FE601214A8
:10018F00601D240270D7900324E493F5A0D2AA80B7
:10019F00CC900325E493F5A0120263C2AA80BE900F
:0D01AF000326E493F5A01202A6C2AA80B0B8
:0603A7001203AD02039AEF
:09036D00C280C281C282C2832257
:09037600D280C281D282C283222E
:09037F00C280D281C282D2832225
:09038800C280D281D282C283221C
:09039100D280C281C282D2832213
:1002DD0012036DEF24FE601314601514601524FCD9
:1002ED00601424077013C2A0020376D2A002037F0C
:0A02FD0002038802039112036D2230
:1002110012036DEF24FE601D14602914603324FC69
:10022100603C2407703B12036D7F967E00120337FA
:10023100C2A002037612036D7F967E00120337D2AD
:10024100A002037F12036D7F967E00120337020323
:100251008812036D7F967E00120337020391120309
:020261006D220C
:10026300A2B592A0A2B69287A2B7929720B7237F96
:10027300081202DD7F2C7E011203077F021202DDCA
:100283007FE87E031203077F031202DD7F087E07E8
:1002930080097F011202DD7F0A7E001203077F01BE
:0302A3000202DD77
:1002A600A2B592A0A2B69287A2B7929720B50720D0
:1002B600B6047F01801220B50730B6047F0380089C
:1002C60030B50F20B60C7F041202DD7F0A7E0012C5
:0702D60003077F080202DDAF
:100337007D0A7C3200DCFDDDF9EF1F70011E144ED3
:0203470070EE56
:010349002291
:10035C007C007D0A1201BCEF1F70011E144E70F759
:01036C00226E
:10030700AB07AA060BBB00010AEB1B70011A144AC4
:0C03170060097F847E0312035C80EE22EC
:10034A00AD071FED600BE4FEEEC3940D50F20E8074
:01035A00F7AB
:01035B00227F
:0E0003007F307E75EF1FAC0670011E4C70F64C
:0100110022CC
:0503AD00D28AD2AF224C
:07039A00D288D2A8D2AF22E5
:03001300020016D2
:0D001600C0E0C0F0C083C082C0D075D00033
:10002300751200C2AA7F0F12034A30B305D2AA0287
:1000330000C820B3077F0112034A80F675100075CC
:10004300110030B3077F0112034A80F620B3077F04
:100053000112034A80F630B3127F0112034A0512DC
:10006300E512C3941E40EFD2AA805A74092510F8F2
:10007300C000E6FFC313D000F6E512C3940840099D
:1000830074092510F8E64480F67512000511E51190
:10009300C3940840AD0510E510C3940440A1E50CDA
:1000A300F4650B6004D2AA801C751000E510900360
:1000B3002D93B50B05AF101202110510E510C39473
:0500C3000A40E9D2AA89
:0B00C800D0D0D082D083D0F0D0E03246
:030000000200D328
:0C00D300787FE4F6D8FD75812002011A48
:1001BC00BC000BBE0029EF8DF084FFADF022E4CC27
:1001CC00F875F008EF2FFFEE33FEEC33FCEE9DECF0
:1001DC00984005FCEE9DFE0FD5F0E9E4CEFD22ED36
:1001EC00F8F5F0EE8420D21CFEADF075F008EF2F80
:1001FC00FFED33FD4007985006D5F0F222C398FD71
:05020C000FD5F0EA220D
:1000DF0002015FE493A3F8E493A34003F68001F2D7
:1000EF0008DFF48029E493A3F85407240CC8C33322
:1000FF00C4540F4420C8834004F456800146F6DFF1
:10010F00E4800B01020408102040809003A1E47EDC
:10011F00019360BCA3FF543F30E509541FFEE493E5
:10012F00A360010ECF54C025E060A840B8E493A3AC
:10013F00FAE493A3F8E493A3C8C582C8CAC583CAD7
:10014F00F0A3C8C582C8CAC583CADFE9DEE780BE8F
:0103A6000056
:00000001FF
