:100B33000102040810203F065B4F666D7D077F6F3F
:060B43007C395E797100AF
:100B0B00908004E4F0908002F0751C10751D107538
:100B1B001E10751F10752010752110F522F523F589
:080B2B0026F527F524F525222B
:0A0AE100900B3993908004F07F160B
:100AEB00E4FDFCC3ED9FEC9E5015E4FBFA0BBB0041
:0F0AFB00010AEB64C84A70F50DBD00010C80E4E0
:010B0A0022C8
:100A28008E108F118C128D138A148B15900B38E44D
:100A380093908002F0EF900B3993908004F07F162A
:100A48007E00120AEB900B37E493908002F0E513D6
:100A5800120AE1900B36E493908002F0E515120A31
:100A6800E1900B35E493908002F0E517120AE190CB
:100A78000B34E493908002F0E519120AE1900B33ED
:100A8800E493908002F0E51B900B3993908004F07A
:050A98007F16020AEBCD
:1003A00090800274DFF0908001E060FA908001E0BC
:1003B000FF7E0053070FEF640F4E700302043D9061
:1003C0008001E0FF7E0053070FEF640F4E60E7905F
:1003D0008001E0FF7E0053070FA3E4F0704DEF248F
:1003E000F5601B24FE60271460342407703D7524DB
:1003F000007525070523E52370020522802D75244D
:10040000007525040523E52370020522801D75244F
:10041000007525010523E52370020522800DE4F512
:1004200024F5250523E52370020522EF640F4E60B5
:1004300098908001E0FF7E0053070F80EE908002CD
:1004400074EFF0908001E0FF7E0053070FEF640F20
:100450004E70030204D5908001E0FF7E0053070F29
:10046000EF640F4E60E7908001E0FF7E0053070FBE
:10047000A3E4F0704EEF24F5601B24FE60271460A7
:10048000342407703E7524007525080523E5237084
:10049000020522802E7524007525050523E52370AD
:1004A000020522801E7524007525020523E52370B0
:1004B000020522800E75240075250F0527E527709B
:1004C000020526EF640F4E6097908001E0FF7E00EA
:1004D00053070F80EE90800274F7F0908001E0FFE8
:1004E0007E0053070FEF640F4E700302056D90807E
:1004F00001E0FF7E0053070FEF640F4E60E790802E
:1005000001E0FF7E0053070FA3E4F0704EEF24F5E7
:10051000601B24FE60271460342407703E7524009D
:100520007525090523E52370020522802E75240018
:100530007525060523E52370020522801E7524001B
:100540007525030523E52370020522800E7524001E
:1005500075250E0527E52770020526EF640F4E600E
:1005600097908001E0FF7E0053070F80EE9080029D
:1005700074FBF0908001E0FF7E0053070FEF640FE3
:100580004E7003020605908001E0FF7E0053070FC6
:10059000EF640F4E60E7908001E0FF7E0053070F8D
:1005A000A3E4F0704EEF24F5601B24FE6027146076
:1005B000342407703E75240075250A0527E5277049
:1005C000020526802E75240075250B0527E527706A
:1005D000020526801E75240075250C0527E5277069
:1005E000020526800E75240075250D0527E5277068
:1005F000020526EF640F4E6097908001E0FF7E00B9
:0506000053070F80EE1E
:0106050022D2
:100606008E108F11C3E51064809480401EE511940E
:100616000AE51064809480501285111C751D1075B2
:100626001E10751F10752010752110D3E511940941
:10063600E510648094804032E5119464E51064808E
:1006460094805026AE10AF117C007D0A1208BF8F31
:100656001CAE10AF117C007D0A1208BF8D1D751EE1
:1006660010751F10752010752110D3E5119463E5E0
:10067600106480948040047F0180027F00C3E511EE
:1006860094E8E5106480948350047E0180027E0025
:10069600EE5F6037AE10AF117C007D641208BF8F2D
:1006A6001CAE10AF117C007D0A1208BF7C007D0ACB
:1006B6001208BF8D1DAE10AF117C007D0A1208BF57
:1006C6008D1E751F10752010752110D3E51194E746
:1006D600E510648094834054E5119410E51064801D
:1006E60094A75048AE10AF117C037DE81208BF8F67
:1006F6001CAE10AF117C007D641208BF7C007D0A21
:100706001208BF8D1DAE10AF117C007D0A1208BF06
:100716007C007D0A1208BF8D1EAE10AF117C007DD5
:100726000A1208BF8D1F752010752110D3E511948C
:100736000FE510648094A74071AE10AF11EE3395AB
:10074600E0FDFC7BA07A8679017800D3120944404B
:1007560059AE10AF117C277D101208BF8F1CAE104A
:10076600AF117C037DE81208BF7C007D0A1208BF2A
:100776008D1DAE10AF117C007D641208BF7C007D1C
:100786000A1208BF8D1EAE10AF117C007D0A12083A
:10079600BF7C007D0A1208BF8D1FAE10AF117C0012
:1007A6007D0A1208BF8D20752110AE10AF11EE33F1
:1007B60095E0FDFC7B9F7A8679017800C312094497
:1007C6004003020857AE10AF11EE3395E0FDFC7BF7
:1007D600407A42790F7800D31209444074AE10AFC4
:1007E60011EE3395E0FDFC7BA07A86790178001244
:1007F6000A9D8F1CAE10AF117C277D101208BF7C9E
:10080600007D0A1208BF8D1DAE10AF117C037DE876
:100816001208BF7C007D0A1208BF8D1EAE10AF11F4
:100826007C007D641208BF7C007D0A1208BF8D1F04
:10083600AE10AF117C007D0A1208BF7C007D0A1243
:1008460008BF8D20AE10AF117C007D0A1208BF8D47
:0208560021225D
:1000030074FFF50CF50DF50EF50F120B0B1203A093
:10001300E52345226036E5227032E52324FE601590
:1000230014601714601914601B14601D2405701CE0
:1000330085251C801785251D801285251E800D852D
:10004300251F80088525208003852521E527640158
:10005300452660030201D5E5247041E52524F560BA
:100063001814601D14602214602714602C2405707A
:100073002B750A00750B0A8023750A00750B0B801C
:100083001B750A00750B0C8013750A00750B0D8028
:100093000B750A00750B0E8003120B0BE522600330
:1000A3000201BEE52324FE601F14602B1460451477
:1000B3006071147003020165240560030201BE75BB
:1000C3000800851C090201BEE51C75F00AA4AEF008
:1000D3007C00251D0201B8E51D75F00AA4FDACF0F6
:1000E300E51C75F064A42DFFE5F03CFE7C00EF25D4
:1000F3001E0201B8AF1C7E007C037DE8120858ACD9
:1001030006AD07E51D75F064A42DFDEC35F0FCE5A7
:100113001E75F00AA42DFFE5F03CFE7C00EF251FC1
:100123000201B8AF1D7E007C037DE8120858AA06C1
:10013300AB07AF1C7E007C277D10120858EF2BFD08
:10014300EE3AFCE51E75F064A42DFDE5F03CFCE5FC
:100153001F75F00AA42DFFE5F03CFE7C00EF25207F
:100163008053AF1CE4FCFDFE7BA07A867901F81274
:1001730008F5AB07AA06AF1D7E007C277D10120889
:1001830058EF2BFBEE3AFAAF1E7E007C037DE8129C
:100193000858EF2BFDEE3AFCE51F75F064A42DFD26
:1001A300E5F03CFCE52075F00AA42DFFE5F03CFEEC
:1001B3007C00EF2521F509EC3EF508E4F522F52353
:1001C300850B1C751D10751E10751F10752010757D
:1001D3002110E527640245266003020308F526F58E
:1001E30027E5226003020303E52324FE601F146056
:1001F3002B1460451460711470030202AA24056075
:1002030003020303750C00851C0D020303E51C7533
:10021300F00AA4AEF07C00251D0202FDE51D75F079
:100223000AA4FDACF0E51C75F064A42DFFE5F03CD9
:10023300FE7C00EF251E0202FDAF1C7E007C037DC9
:10024300E8120858AC06AD07E51D75F064A42DFD52
:10025300EC35F0FCE51E75F00AA42DFFE5F03CFE3D
:100263007C00EF251F0202FDAF1D7E007C037DE8AD
:10027300120858AA06AB07AF1C7E007C277D10121C
:100283000858EF2BFDEE3AFCE51E75F064A42DFD36
:10029300E5F03CFCE51F75F00AA42DFFE5F03CFEFC
:1002A3007C00EF25208053AF1CE4FCFDFE7BA07A8D
:1002B300867901F81208F5AB07AA06AF1D7E007C0C
:1002C300277D10120858EF2BFBEE3AFAAF1E7E0083
:1002D3007C037DE8120858EF2BFDEE3AFCE51F7511
:1002E300F064A42DFDE5F03CFCE52075F00AA42D97
:1002F300FFE5F03CFE7C00EF2521F50DEC3EF50C0F
:10030300E4F522F523E50DF47003E50CF46056E5FE
:100313000A7052E50B24F5601C1460281460322423
:10032300FE603F2405703EE509250DF50FE5083510
:100333000CF50E8030C3E509950DF50FE508950C16
:10034300F50E8021AC0CAD0DAE08AF091208588034
:100353000BAC0CAD0DAE08AF0912086A8E0E8F0FF1
:100363008003120B0BE50FF47003E50EF46007AF87
:100373000FAE0E120606AF1C7E00AD1D7C00AB1E39
:100383007A00E51F751600F517E520751800F519B5
:0D039300E521751A00F51B120A2802001062
:03000000020B49A7
:0C0B4900787FE4F6D8FD758127020003D8
:10085800EF8DF0A4A8F0CF8CF0A428CE8DF0A42EB4
:02086800FE226E
:10086A00BC000BBE0029EF8DF084FFADF022E4CC72
:10087A00F875F008EF2FFFEE33FEEC33FCEE9DEC3B
:10088A00984005FCEE9DFE0FD5F0E9E4CEFD22ED81
:10089A00F8F5F0EE8420D21CFEADF075F008EF2FCB
:1008AA00FFED33FD4007985006D5F0F222C398FDBC
:0508BA000FD5F0EA2259
:1008BF00C2D5EC30E709B2D5E4C39DFDE49CFCEE54
:1008CF0030E715B2D5E4C39FFFE49EFE12086AC35A
:1008DF00E49DFDE49CFC800312086A30D507C3E455
:0608EF009FFFE49EFE22C3
:1008F500E88FF0A4CC8BF0A42CFCE98EF0A42CFCA2
:100905008AF0EDA42CFCEA8EF0A4CDA8F08BF0A41F
:100915002DCC3825F0FDE98FF0A42CCD35F0FCEB7E
:100925008EF0A4FEA9F0EB8FF0A4CFC5F02ECD3943
:0F093500FEE43CFCEAA42DCE35F0FDE43CFC22B0
:100A9D00C2D5E830E70FB2D5E4C39BFBE49AFAE484
:100AAD0099F9E498F8EC30E717B2D5120AD3120988
:100ABD0096E4C39BFBE49AFAE499F9E498F8800371
:100ACD0012099630D50DE4C39FFFE49EFEE49DFD13
:040ADD00E49CFC2277
:10094400EB9FF5F0EA9E42F0E99D42F0EC6480C82A
:0609540064809845F022CA
:10095A0075F008758200EF2FFFEE33FECD33CDCC54
:10096A0033CCC58233C5829BED9AEC99E5829840D7
:10097A000CF582EE9BFEED9AFDEC99FC0FD5F0D6B4
:10098A00E4CEFBE4CDFAE4CCF9A88222B800C1B9DE
:10099A000059BA002DEC8BF084CFCECDFCE5F0CB1C
:1009AA00F97818EF2FFFEE33FEED33FDEC33FCEB55
:1009BA0033FB10D703994004EB99FB0FD8E5E4F910
:1009CA00FA227818EF2FFFEE33FEED33FDEC33FCFD
:1009DA00C933C910D7059BE99A4007EC9BFCE99AF1
:1009EA00F90FD8E0E4C9FAE4CCFB2275F010EF2F36
:1009FA00FFEE33FEED33FDCC33CCC833C810D70736
:100A0A009BEC9AE899400AED9BFDEC9AFCE899F870
:0E0A1A000FD5F0DAE4CDFBE4CCFAE4C8F92203
:00000001FF
