:10006E00900000AF82AE83E4FCFD7BFF7AE079F571
:10007E007805D312005840187C037DE8AF82AE831A
:10008E00120003ED4C7004C2908002D290A380D374
:01009E00223F
:0300000002009F5C
:0C009F00787FE4F6D8FD75810702006E42
:10000300BC000BBE0029EF8DF084FFADF022E4CCE1
:10001300F875F008EF2FFFEE33FEEC33FCEE9DECAA
:10002300984005FCEE9DFE0FD5F0E9E4CEFD22EDF0
:10003300F8F5F0EE8420D21CFEADF075F008EF2F3A
:10004300FFED33FD4007985006D5F0F222C398FD2B
:050053000FD5F0EA22C8
:10005800EB9FF5F0EA9E42F0E99D42F0EC6480C81F
:0600680064809845F022BF
:00000001FF
