:10000300750800750904900000C3E5829509E5832E
:10001300950840030200DC7A017BF47C037D20AF6A
:1000230003AE021200F8ED4C7004C2908002D2902D
:100033007C037D84AF03AE021200F8ED4C7004C262
:10004300918002D2917C037DE8AF03AE021200F8E7
:10005300ED4C7004C2928002D2927C047D4CAF03BB
:10006300AE021200F8ED4C7004C2938002D2937C6E
:10007300047DB0AF03AE021200F8ED4C7004C294DD
:100083008002D2947C057D14AF03AE021200F8ED1A
:100093004C7004C2958002D2957C057D78AF03AE87
:1000A300021200F8ED4C7004C2968002D2967C05D1
:1000B3007DDCAF03AE021200F8ED4C7004C29780F2
:1000C30002D2970BBB00010AEB64407003EA64069B
:1000D300600302001EA302000CE582B50916E58346
:1000E300B50811E4FAFB7590FF0BBB00010AEB6442
:0400F300084A70F255
:0100F70022E6
:0300000002014DAD
:0C014D00787FE4F6D8FD758109020003FC
:1000F800BC000BBE0029EF8DF084FFADF022E4CCEC
:10010800F875F008EF2FFFEE33FEEC33FCEE9DECB4
:10011800984005FCEE9DFE0FD5F0E9E4CEFD22EDFA
:10012800F8F5F0EE8420D21CFEADF075F008EF2F44
:10013800FFED33FD4007985006D5F0F222C398FD35
:050148000FD5F0EA22D2
:00000001FF
