:0E006A00E4FFFE0FBF00010EBE48F8BF44F5D4
:010078002265
:10000300750CFE750800750940850C90C2A3E4F5D4
:100013000AF50B12006A050BE50B7002050AC3947F
:1000230005E50A940040EC7590FFD2A3E4F50AF5C8
:100033000B12006A050BE50B7002050AC39405E574
:100043000A940040ECAF0C7801EF08800123D8FD3F
:10005300F50CE509150970021508D3E5099400E5C7
:0700630008940050A480FE88
:0300000002007982
:0C007900787FE4F6D8FD75810C020003CE
:00000001FF
