:0E00CC00E4FFFE0FBF00010EBE48F8BF44F572
:0100DA002203
:10000300E4F514F515750E00750FFE7510007511E6
:1000130001751200751308E4F50CF50D850F1685AF
:100023001208851309D3E5099400E5089400404FAD
:10003300851690E4F50AF50B1200CC050BE50B7061
:1000430002050AC39403E50A940040EC7590FFE4AB
:10005300F50AF50B1200CC050BE50B7002050AC37C
:100063009403E50A940040ECAF167801EF08800191
:1000730023D8FDF516E509150970AA150880A6E52C
:100083001125E0FFE51033FEC3E50F9FF50FE50EE5
:100093009EF50EE5131513700215128E108F1105C0
:1000A3000DE50D7002050CC39408E50C9400500394
:1000B30002001F0515E51570020514C39403E5142A
:0900C3009400500302000880FEC5
:030000000200DB20
:0C00DB00787FE4F6D8FD75811602000362
:00000001FF
