:0E016200E4FFFE0FBF00010EBE48F8BF44F5DB
:01017000226C
:100003007510FEE4F50EF50FE4F50CF50D7508001B
:10001300750908851090E4F50AF50B120162050BCA
:10002300E50B7002050AC39402E50A940040EC75DF
:1000330090FFE4F50AF50B120162050BE50B700264
:10004300050AC39402E50A940040ECAF107801EF6F
:1000530008800123D8FDF510E5091509700215087C
:10006300D3E5099401E508940050A87508007509C3
:1000730008851090E4F50AF50B120162050BE50BF8
:100083007002050AC39402E50A940040EC7590FFE0
:10009300E4F50AF50B120162050BE50B7002050A84
:1000A300C39402E50A940040ECAF107801EF088096
:1000B3000103D8FDF510E509150970021508D3E50C
:1000C300099401E508940050A8050DE50D7002059B
:1000D3000CC39402E50C94005003020010851090A9
:1000E300E4F50AF50B120162050BE50B7002050A34
:1000F300C39402E50A940040EC7590FFE4F50CF517
:100103000DE4F50AF50B120162050BE50B70020510
:100113000AC39403E50A940040ECE4F590F50AF56C
:100123000B120162050BE50B7002050AC39403E58C
:100133000A940040EC7590FF050DE50D7002050C67
:10014300C39405E50C940040B8050FE50F70020554
:0F0153000EC39405E50E9400500302000B80FECE
:0300000002017189
:0C017100787FE4F6D8FD758110020003D1
:00000001FF
