:0D007300850E90C2A31200807590FFD2A3ED
:0E008000E4FFFE0FBF00010EBE48F8BF44F5BE
:01008E00224F
:05000300E4F50CF50D11
:10000800750EFE750800750908120073AF0E7801A9
:10001800EF08800123D8FDF50EE5091509700215D2
:1000280008D3E5099400E508940050DD750E7F7546
:100038000800750908120073AF0E7801EF088001F7
:1000480003D8FDF50EE509150970021508D3E50971
:080058009400E508940050DD5E
:10006000050DE50D7002050CC39408E50C940040E5
:030070009780FE78
:0300000002008F6C
:0C008F00787FE4F6D8FD75810E020003B6
:00000001FF
