:0E029900E4FFFE0FBF00010EBE48F8BF44F5A3
:0102A7002234
:10000300E4F50CF50D759055E4F50AF50B1202991C
:10001300050BE50B7002050AC39403E50A9400403F
:10002300EC7590AAE4F50AF50B120299050BE50BA2
:100033007002050AC39403E50A940040EC050DE53C
:100043000D7002050CC39403E50C940040B7759042
:06005300FFE4F50CF50DC1
:10005900750EFE750800750908850E90E4F50AF518
:100069000B120299050BE50B7002050AC39403E50F
:100079000A940040EC7590FFE4F50AF50B12029919
:10008900050BE50B7002050AC39403E50A940040C9
:10009900ECAF0E7801EF08800123D8FDF50EE509D4
:1000A900150970021508D3E5099400E50894005074
:1000B900A8750E7F750800750908850E90E4F50A84
:1000C900F50B120299050BE50B7002050AC394039F
:1000D900E50A940040EC7590FFE4F50AF50B12026D
:1000E90099050BE50B7002050AC39403E50A940010
:1000F90040ECAF0E7801EF08800103D8FDF50EE55D
:1001090009150970021508D3E5099400E50894005A
:0201190050A8EC
:10011B00050DE50D7002050CC39403E50C9400501E
:10012B00030200597590FFE4F50CF50D75907EE414
:10013B00F50AF50B120299050BE50B7002050AC3C4
:10014B009403E50A940040EC7590BDE4F50AF50BB9
:10015B00120299050BE50B7002050AC39403E50A1D
:10016B00940040EC7590DBE4F50AF50B120299054F
:10017B000BE50B7002050AC39403E50A940040ECEF
:10018B007590E7E4F50AF50B120299050BE50B7078
:10019B0002050AC39403E50A940040EC050DE50D36
:1001AB007002050CC39403E50C9400500302013755
:1001BB007590FFE4F50CF50D7590E7E4F50AF50B7A
:1001CB00120299050BE50B7002050AC39403E50AAD
:1001DB00940040EC7590DBE4F50AF50B12029905DF
:1001EB000BE50B7002050AC39403E50A940040EC7F
:1001FB007590BDE4F50AF50B120299050BE50B7032
:10020B0002050AC39403E50A940040EC75907EE462
:10021B00F50AF50B120299050BE50B7002050AC3E3
:10022B009403E50A940040EC050DE50D7002050CF6
:10023B00C39403E50C940050030201C37590FFE4D3
:10024B00F50CF50DE4F590F50AF50B120299050B7B
:10025B00E50B7002050AC39403E50A940040EC75A4
:10026B0090FFE4F50AF50B120299050BE50B7002F2
:10027B00050AC39403E50A940040EC050DE50D70E7
:0E028B0002050CC39403E50C940040B880FEFD
:030000000202A851
:0C02A800787FE4F6D8FD75810E0200039B
:00000001FF
