:1002D300E4F50CF50DF508F509F50AF50BD2AFD2E7
:1002E300ABD2A9D28ED28C758911758D8A758BD0BC
:0802F300758C3C758AB080FE99
:03001B000202A836
:1002A800C0E0C0D0758D3C758BB0050DE50D7002B2
:1002B800050CB46811E50CB4010C750C00750D0043
:0B02C8007508C3750950D0D0D0E0329B
:03000B0002001ED2
:10001E00C0E0C0F0C083C082C0D075D000C000C0A8
:10002E0001C002C003C004C005C006C007AE08AFC1
:10003E0009AB07AA06E4C39BFFE49AFE7401940081
:10004E00FDE49400FCE4FB7A01F9F81202648F8C53
:10005E00AE08AF09AB07AA06E4C39BFFE49AFE7491
:10006E00019400FDE49400FCE4FB7A01F9F812021D
:10007E0064AF038F8A050FE50F7002050EC3E50D01
:10008E009428E50C94005014750E00750F0A750E29
:10009E0000750F007508C3750950B293D3E50D9422
:1000AE0028E50C94004018E50D9450E50C94005092
:1000BE000E750E00750F007508C3750950B293D3F7
:1000CE00E50D9450E50C94004012E50D9478E50C86
:1000DE0094005008750827750910B293D3E50D9456
:1000EE0078E50C94004012E50D94A0E50C940050B8
:1000FE0008750813750988B293D3E50D94A0E50C25
:10010E0094004012E50D94C8E50C94005008750853
:10011E00097509C4B293D3E50D94C8E50C9400405B
:10012E0012E50D94F0E50C9400500875080475095D
:10013E00E2B293D3E50D94F0E50C94004012E50D78
:10014E009418E50C94015008750802750971B29364
:10015E00D3E50D9418E50C94014012E50D9440E59D
:10016E000C940150087508017509F4B293D007D0AC
:10017E0006D005D004D003D002D001D000D0D0D00C
:08018E0082D083D0F0D0E032F2
:0300000002000EED
:0C000E00787FE4F6D8FD75810F0202D364
:10026400C2D5E830E70FB2D5E4C39BFBE49AFAE4C5
:1002740099F9E498F8EC30E717B2D512029A120112
:10028400D2E4C39BFBE49AFAE499F9E498F8800376
:100294001201D230D50DE4C39FFFE49EFEE49DFD20
:0402A400E49CFC22B8
:1001960075F008758200EF2FFFEE33FECD33CDCC20
:1001A60033CCC58233C5829BED9AEC99E5829840A3
:1001B6000CF582EE9BFEED9AFDEC99FC0FD5F0D680
:1001C600E4CEFBE4CDFAE4CCF9A88222B800C1B9AA
:1001D6000059BA002DEC8BF084CFCECDFCE5F0CBE8
:1001E600F97818EF2FFFEE33FEED33FDEC33FCEB21
:1001F60033FB10D703994004EB99FB0FD8E5E4F9DC
:10020600FA227818EF2FFFEE33FEED33FDEC33FCC8
:10021600C933C910D7059BE99A4007EC9BFCE99ABC
:10022600F90FD8E0E4C9FAE4CCFB2275F010EF2F01
:10023600FFEE33FEED33FDCC33CCC833C810D70701
:100246009BEC9AE899400AED9BFDEC9AFCE899F83C
:0E0256000FD5F0DAE4CDFBE4CCFAE4C8F922CF
:00000001FF
