:1000030000FE00FD00FB00F700EF00DF00BF007FF4
:10001E00E4F50AF50BF508F509D2AFD2ABD28E7521
:10002E00891090000493F590758D3C758BB0E509A1
:10003E0020E0057590FF80F6E50B25E0FFE50A331D
:10004E00FE74032FF58274003EF583740193F590D0
:02005E0080DC44
:03001B0002006080
:10006000C0E0758D3C758BB00509E5097002050887
:1000700064144508700E050BE50B7002050A75083F
:1000800000750900E50B6408450A7004F50AF50BD4
:03009000D0E0328B
:0300000002009368
:0C009300787FE4F6D8FD75810B02001E9A
:00000001FF
