:100244003F065B4F666D7D077F6F777C395E797102
:07025400010E000210000082
:06023000D2A7C2A77F0562
:0D023600EFD3940040077E7DDEFE1F80F3B5
:010243002298
:10000300758920758DFD758BFDD28EC29FD29ED2D0
:090013009CD2AFD2AC75878022AB
:10002600AB07AA067C277D1012017E8F087C277DF0
:1000360010AF03AE0212017E7E037FE8CFCDCFCE96
:10004600CCCE12017E8F097C037DE8AF03AE02128F
:10005600017E7E007F64CFCDCFCECCCE12017E8FC7
:100066000A7C007D64AF03AE0212017E7E007F0A29
:10007600CFCDCFCECCCE12017E8F0BAE02AF037C9E
:10008600007D0A12017E8D0CE50890024493F580EE
:10009600D2A6C2A67580FE120230C2A6E50993F565
:1000A60080D2A6C2A6C2A77580FD120230C2A6E5FE
:1000B6000A93F580D2A6C2A6C2A77580FB120230AB
:1000C600C2A6E50B93F580D2A6C2A6C2A77580F795
:1000D600120230C2A6E50C93F580D2A6C2A6C2A72C
:0C00E6007580EFD2A7C2A77F050202368A
:10021800120003E4F513AF11AE101200260513E522
:0802280013C3941440F080EBB5
:030023000201D304
:1001D300C0E0C0D075D000C006C00730982E050E11
:1001E300E50EB40107AF997514008F15E50EB4023F
:1001F30019AF997516008F17E5157F00FEEF2517C8
:10020300F511E5163EF510750E00C298D007D0061D
:05021300D0D0D0E03264
:030000000200F209
:0C00F200787FE4F6D8FD75811702013913
:10017E00BC000BBE0029EF8DF084FFADF022E4CC65
:10018E00F875F008EF2FFFEE33FEEC33FCEE9DEC2E
:10019E00984005FCEE9DFE0FD5F0E9E4CEFD22ED74
:1001AE00F8F5F0EE8420D21CFEADF075F008EF2FBE
:1001BE00FFED33FD4007985006D5F0F222C398FDAF
:0501CE000FD5F0EA224C
:1000FE00020218E493A3F8E493A34003F68001F2FE
:10010E0008DFF48029E493A3F85407240CC8C33302
:10011E00C4540F4420C8834004F456800146F6DFD1
:10012E00E4800B0102040810204080900254E47E0B
:10013E00019360BCA3FF543F30E509541FFEE493C6
:10014E00A360010ECF54C025E060A840B8E493A38D
:10015E00FAE493A3F8E493A3C8C582C8CAC583CAB8
:10016E00F0A3C8C582C8CAC583CADFE9DEE780BE70
:01025B0000A2
:00000001FF
